S01F00004175746F6E6F6D6F757344726976696E6753797374656D2E7372656373
S11300000C946B000C94B7010C9488000C94880039
S11300100C9488000C9488000C9488000C9488003C
S11300200C9488000C9488000C9488000C9488002C
S11300300C9488000C941E030C9488000C94880083
S11300400C9488000C9488000C9488000C9488000C
S11300500C94880007634236B79BD8A71A396856B0
S113006018AEBAAB558C1D3CB7CC5763BD6DEDFDD6
S1130070753EF6177231BF000000803F0800000093
S1130080BE922449123EABAAAA2ABECDCCCC4C3E89
S113009000000080BEABAAAAAA3E00000000BF0078
S11300A00000803F0000000000084178D3BB438774
S11300B0D1133D190E3CC3BD4282AD2B3E68EC8288
S11300C076BED98FE1A93E4C80EFFFBE01C4FF7F0D
S11300D03F000000000011241FBECFE5D8E0DEBFC2
S11300E0CDBF10E0A0E6B0E0ECE9F5E102C0059078
S11300F00D92A83AB107D9F720E0A8EAB0E001C010
S11301001D92AB3DB207E1F70E9462020C94CC0A47
S11301100C9400008DE990E00E946E030895CF9244
S1130120DF92EF92FF920F931F93CF93DF9300D050
S1130130CDB7DEB71A82198280E00E94A60310911F
S1130140A100AE014F5F5F4F612F80E00E94AC03BE
S1130150112329F0113031F000E010E005C000E077
S113016011E002C000E014E069817A8180E090E04F
S11301700E94640720E030E040EA50E40E94F20765
S11301806B017C01B80180E090E00E9464079B0150
S1130190AC01C701B6010E94C3062DED34E246E965
S11301A05FEB0E945F0828E431EE40E652E40E94CF
S11301B0F2070E943507862F0F900F90DF91CF91A1
S11301C01F910F91FF90EF90DF90CF9008958DE9EC
S11301D090E00E946E030895CF93DF9300D0CDB7D3
S11301E0DEB71A82198280E00E94A603AE014F5F37
S11301F05F4F6091A10081E00E94AC0389819A81E4
S11302000F900F90DF91CF91089541E060E084E377
S113021090E00E94E80341E061E084E390E00E9402
S1130220E80341E062E084E390E00E94E80340E0F8
S113023062E085E390E00E94060408951F93CF9343
S1130240DF93182FC0E0D0E019C041E060E085E3FF
S113025090E00E9406048FEC97E00197F1F700C04C
S1130260000040E060E085E390E00E9406048FEC2B
S113027097E00197F1F700C0000021962DE2129F4C
S1130280C00111248C179D070CF1C93283E2D807F1
S1130290E4F2C0E0D0E01CC041E060E085E390E01F
S11302A00E9406048FEC97E00197F1F700C000006C
S11302B040E060E085E390E00E9406048FEC97E064
S11302C00197F1F700C00000219602C0C0E0D0E021
S11302D01C161D060CF7DF91CF911F9108952AB1CA
S11302E028612AB92AB120682AB920B5266820BD18
S11302F0DC01CB01880F991FAA1FBB1F880F991F10
S1130300AA1FBB1F9C01AD01220F331F441F551FA1
S1130310220F331F441F551F60E074E284EF90E006
S11303200E94510A8FEF820F89B9DA01C90101973E
S1130330A109B109892F9A2FAB2FBB2780BD08953E
S11303405D9BFECF8CB908950F931F93CF938C01BF
S1130350C0E003C00E94A001CF5FF801EC0FF11DC3
S113036080818111F7CFCF911F910F9108951F9232
S11303700F920FB60F9211248F939F9387E893E106
S11303800197F1F700C000008091B2008F5F809365
S1130390B20087E893E10197F1F700C000009F9154
S11303A08F910F900FBE0F901F90189581E00E94BF
S11303B0AC0462E080E00E94830440E062E081E3F8
S11303C090E00E94E80385EA90E00E9424060E94DF
S11303D08A062093AA003093AB004093AC0050935C
S11303E0AD006093AE007093AF008093B000909323
S11303F0B10008957F928F929F92AF92BF92CF9255
S1130400DF92EF92FF920F931F93CF93DF930E949B
S11304108A06722E832E942ED52FC62FB72FF82F2F
S1130420E92F2091AA003091AB004091AC0050918B
S1130430AD006091AE007091AF008091B0009091DA
S1130440B100ABE40E94820AA22EB32EC42ED52E94
S1130450E62EF72E082F192F272D382D492D5D2F25
S11304606C2F7B2F8F2F9E2F0E948E0AD0F00E941C
S11304708A062093AA003093AB004093AC005093BB
S1130480AD006093AE007093AF008093B000909382
S1130490B1008091B2008093A9001092B2008695B9
S11304A003C08091A9008695DF91CF911F910F9190
S11304B0FF90EF90DF90CF90BF90AF909F908F9080
S11304C07F900895CF93DF9300D000D01F92CDB7D3
S11304D0DEB70E948A06622E732E842E952E6D83BB
S11304E079838A839B8341E067E084E390E00E9400
S11304F0E80340E060E08AE390E00E94E80341E022
S113050065E081E390E00E94E80360E875E280E042
S113051090E00E946F010E9405010E94E7000E9482
S11305208A000E94D6018EE790E00E94B90460E040
S113053070E081E00E94AA0589E10E941E010E94E8
S1130540FA010E948F008E3160F441E067E085E398
S113055090E00E94060464E670E081E00E94AA052F
S113056006C040E067E085E390E00E9406040E9434
S11305708A062C83232E342E452E562EB72FF82F81
S1130580E92F262D372D482D592D6D8179818A81AA
S11305909B81ACE00E94820AA22EB32EC42ED52EDB
S11305A0E62EF72E082F192F2C81322D432D542D92
S11305B0652D7B2F8F2F9E2F0E948E0A08F4BFCFAC
S11305C00E94EC004AE06DEB70E00E94970A82E919
S11305D090E00E94A4018DEB90E00E94A4010E948F
S11305E0FA014AE067EC70E090E00E94970A85E91E
S11305F090E00E94A40187EC90E00E94A4010E9474
S11306008F004AE061ED70E090E00E94970A88E96B
S113061090E00E94A40181ED90E00E94A4018BE986
S113062090E00E94A4010E948A06622E732E842EFA
S1130630952E6D8379838A839B8381CF1F920F923A
S11306400FB60F9211242F933F934F935F936F93A1
S11306507F938F939F93AF93BF93EF93FF93E09117
S1130660A800F0E08CB1E05AFF4F80838091A8008D
S11306708F5F8093A8008091A8008230C0F0109210
S1130680A80080916000813429F4809161000E9467
S11306901E010DC0809160008D3449F48091610089
S11306A064E670E0681B710981E00E94AA05FF916D
S11306B0EF91BF91AF919F918F917F916F915F91D6
S11306C04F913F912F910F900FBE0F901F9018954F
S11306D0349902C081E0089582E00895FC0117B8BE
S11306E016B880B78F7180BF808181112EC082813E
S11306F0882319F0823039F00DC086B1806286B942
S113070080B780BF07C086B1806286B990B7858103
S1130710892B80BF97B18181892B87B984818823F4
S113072019F0813029F008C087B1806287B904C00C
S113073097B18681892B87B996B123818781822BD2
S1130740892B86B986B1806886B90895811103C062
S113075086B1806486B908950F931F93CF93C62FF3
S11307608A0197B1907E97B997B1892B87B90E9476
S113077068038130E1F3CC2319F0C13039F021C092
S113078085B190E0F801918380831BC08091A30020
S1130790882319F0803239F014C084B195B1F8017E
S11307A0918380830EC084B195B10024880F991F72
S11307B0001C880F991F001C892F902DF80191832C
S11307C0808386B1806186B9CF911F910F9108957E
S11307D0442319F0413071F00895FC01408121E077
S11307E030E002C0220F331F6A95E2F720952423DC
S11307F020830895FC01408121E030E002C0220FF3
S1130800331F6A95E2F7242B20830895442319F0BB
S1130810413071F00895FC01408121E030E002C0D4
S1130820220F331F6A95E2F720952423208308952D
S1130830FC01408121E030E002C0220F331F6A95A1
S1130840E2F7242B208308958130F1F030F08230D8
S113085089F1833009F442C0089535B781E090E00E
S1130860FC0102C0EE0FFF1F6A95E2F72E2F2095C0
S1130870232325BF25B702C0880F991F4A95E2F7A5
S11308808095822385BF089535B781E090E0FC010F
S113089002C0EE0FFF1F6A95E2F72E2F2095232347
S11308A025BF25B702C0880F991F4A95E2F7822B0E
S11308B085BF089555B781E090E09C0102C0220FE6
S11308C0331F6A95E2F7252B25BF25B702C0880F91
S11308D0991F4A95E2F7822B85BF089555B781E0A9
S11308E090E09C0102C0220F331F6A95E2F7252B8A
S11308F025BF25B702C0880F991F4A95E2F7809556
S1130900822385BF0895962F813069F018F08230D4
S113091099F0089541E060E0892F0E9424048BB788
S113092080648BBF089543E062E0892F0E94240411
S11309308BB780688BBF0895613019F0623029F05D
S113094007C084B78F7B84BF03C084B7806484BF2F
S11309508BB780628BBF0895882319F0813029F00A
S113096008958FB78F778FBF08958FB780688FBF33
S11309700895CF92DF92EF92FF920F931F93CF933C
S1130980DF93FC018081882319F0813099F1D9C06B
S113099013BE12BE93B7338181812281832B822BB4
S11309A0892B83BF82818032B1F0803309F0C9C0C2
S11309B08085918524E630E0281B390B36952795F0
S11309C036952795ABE7B4E10E94730A969587950F
S11309D081958CBFB6C0208531853695279536958F
S11309E02795ABE7B4E10E94730A969587958195A4
S11309F08CBFA7C01FBC1EBC1DBC1CBC8181803425
S1130A0079F08834C9F48FB58E7F8FBD8FB582603D
S1130A108FBD8EB588608EBD8EB580618EBD0CC0D5
S1130A208FB581608FBD8FB582608FBD8EB5877F96
S1130A308EBD8EB580618EBDEF0106811781648104
S1130A40758180E090E00E9464079B01AC0160E046
S1130A5070E08AE794E40E94C3066B017C01B8014C
S1130A6080E090E00E946407A70196010E94F207CB
S1130A709B01AC0160E074E284E79BE40E94C3063E
S1130A800E943507615071097093B4006093B300FC
S1130A9077BD66BD8A81803261F1803309F04DC033
S1130AA08FB580648FBD8FB580688FBD888599852B
S1130AB064E670E0681B790B80E090E00E946407B4
S1130AC020E030E048EC52E40E94C3066B017C0154
S1130AD06091B3007091B40080E090E00E946407DC
S1130AE0A70196010E94F2070E9435077BBD6ABDEB
S1130AF024C08FB58F7B8FBD8FB580688FBD68850F
S1130B00798580E090E00E94640720E030E048ECC2
S1130B1052E40E94C3066B017C016091B3007091A2
S1130B20B40080E090E00E946407A70196010E944F
S1130B30F2070E9435077BBD6ABD9EB58B81892B68
S1130B408EBDDF91CF911F910F91FF90EF90DF90B9
S1130B50CF900895CF92DF92EF92FF92882319F0FD
S1130B60813039F16CC0809176008032A1F08033FD
S1130B7009F065C024E630E0261B370B369527952F
S1130B8036952795ABE7B4E10E94730A969587954D
S1130B9081958CBF54C09B01369527953695279532
S1130BA0ABE7B4E10E94730A9695879581958CBF53
S1130BB046C080917600803231F1803309F03FC025
S1130BC084E690E09C01261B370BB90180E090E09D
S1130BD00E94640720E030E048EC52E40E94C3061F
S1130BE06B017C016091B3007091B40080E090E0EF
S1130BF00E946407A70196010E94F2070E9435072C
S1130C007BBD6ABD1CC080E090E00E94640720E0C8
S1130C1030E048EC52E40E94C3066B017C01609111
S1130C20B3007091B40080E090E00E946407A701D3
S1130C3096010E94F2070E9435077BBD6ABDFF90B2
S1130C40EF90DF90CF900895FC0112BE9181913016
S1130C50A1F028F09230C1F0933041F01BC083B76B
S1130C608F7B83BF83B7877F83BF14C083B78064C0
S1130C7083BF83B7877F83BF0DC083B7886083BF7B
S1130C8083B78F7B83BF06C083B7806483BF83B77A
S1130C90886083BF80818330F9F028F4813041F08B
S1130CA0823081F00895843009F1853049F1089546
S1130CB083B7816083BF83B78D7F83BF83B78B7F07
S1130CC083BF089583B78B7F83BF83B7826083BF5D
S1130CD083B78E7F83BF089583B78B7F83BF83B72A
S1130CE0826083BF83B7816083BF089583B78460C4
S1130CF083BF83B78D7F83BF83B78E7F83BF089500
S1130D0083B7846083BF83B78D7F83BF83B78160DC
S1130D1083BF089582B78F3F29F581EC82BF20916C
S1130D20B5003091B6004091B7005091B800609181
S1130D30B9007091BA008091BB009091BC00A1E011
S1130D400E94820A2093B5003093B6004093B70006
S1130D505093B8006093B9007093BA008093BB00BD
S1130D609093BC002091B5003091B6004091B7003B
S1130D705091B8006091B9007091BA008091BB00A5
S1130D809091BC0008950E94D7060C94B8070E9465
S1130D90B10758F00E94AA0740F029F45F3F29F0F8
S1130DA00C94A10751110C94EC070C94A7070E9412
S1130DB0C90768F39923B1F3552391F3951B550B98
S1130DC0BB27AA2762177307840738F09F5F5F4F1A
S1130DD0220F331F441FAA1FA9F335D00E2E3AF059
S1130DE0E0E832D091505040E695001CCAF72BD071
S1130DF0FE2F29D0660F771F881FBB1F26173707C2
S1130E004807AB07B0E809F0BB0B802DBF01FF27F3
S1130E1093585F4F3AF09E3F510578F00C94A10728
S1130E200C94EC075F3FE4F3983ED4F386957795F2
S1130E306795B795F7959F5FC9F7880F911D9695AC
S1130E40879597F90895E1E0660F771F881FBB1F08
S1130E50621773078407BA0720F0621B730B840BB5
S1130E60BA0BEE1F88F7E09508950E94D10788F029
S1130E709F5798F0B92F9927B751B0F0E1F0660F5A
S1130E80771F881F991F1AF0BA95C9F714C0B1309B
S1130E9091F00E94EB07B1E008950C94EB07672FE3
S1130EA0782F8827B85F39F0B93FCCF386957795CA
S1130EB06795B395D9F73EF49095809570956195B3
S1130EC07F4F8F4F9F4F0895E89409C097FB3EF4DE
S1130ED090958095709561957F4F8F4F9F4F992383
S1130EE0A9F0F92F96E9BB279395F6958795779501
S1130EF06795B795F111F8CFFAF4BB0F11F460FFC1
S1130F001BC06F5F7F4F8F4F9F4F16C0882311F018
S1130F1096E911C0772321F09EE8872F762F05C02C
S1130F20662371F096E8862F70E060E02AF09A95C7
S1130F30660F771F881FDAF7880F9695879597F9BC
S1130F40089597F99F6780E870E060E008959FEF47
S1130F5080EC089500240A9416161706180609064C
S1130F60089500240A94121613061406050608951B
S1130F70092E0394000C11F4882352F0BB0F40F4A3
S1130F80BF2B11F460FF04C06F5F7F4F8F4F9F4FE3
S1130F90089557FD9058440F551F59F05F3F71F065
S1130FA04795880F97FB991F61F09F3F79F08795CC
S1130FB00895121613061406551FF2CF4695F1DF55
S1130FC008C0161617061806991FF1CF86957105E5
S1130FD0610508940895E894BB2766277727CB0119
S1130FE097F908950E9405080C94B8070E94AA076F
S1130FF038F00E94B10720F0952311F00C94A1075A
S11310000C94A70711240C94EC070E94C90770F3F1
S1131010959FC1F3950F50E0551F629FF001729F99
S1131020BB27F00DB11D639FAA27F00DB11DAA1FA8
S1131030649F6627B00DA11D661F829F2227B00DF5
S1131040A11D621F739FB00DA11D621F839FA00D80
S1131050611D221F749F3327A00D611D231F849FD0
S1131060600D211D822F762F6A2F11249F57504027
S11310709AF0F1F088234AF0EE0FFF1FBB1F661FA2
S1131080771F881F91505040A9F79E3F510580F06B
S11310900C94A1070C94EC075F3FE4F3983ED4F35F
S11310A0869577956795B795F795E7959F5FC1F70F
S11310B0FE2B880F911D9695879597F90895FA014F
S11310C0EE0FFF1F309621053105A1F16115710561
S11310D061F48038BFE39B0749F168949038810537
S11310E061F08038BFEF9B0741F099234AF5FF3F39
S11310F0E1053105210519F1E8940894E795D90132
S1131100AA2329F4AB2FBE2FF85FD0F310C0FF5FE2
S113111070F4A695E0F7F73950F019F0FF3A38F477
S11311209F779F930DD00F9007FC9058089546F039
S11311300C94A70760E070E080E89FE308954FE710
S11311409F775F934F933F932F930E945A092F9158
S11311503F914F915F910E94F2070C94B70829F4D4
S113116016F00C94A1070C94EB070C94A7070E94AB
S1131170D107A8F39638A0F707F80F92E8942BE369
S11311803AEA48EB5FE70E9408080F920F920F9229
S11311904DB75EB70F920E94A209E4E5F0E00E9409
S11311A0E9084F915F91EF91FF91E595EE1FFF1FC5
S11311B049F0FE57E0684427EE0F441FFA95E1F723
S11311C04195550B0E941C090F9007FE0C941009C1
S11311D00895DF93CF931F930F93FF92EF92DF92C3
S11311E07B018C01689406C0DA2EEF010E94050889
S11311F0FE01E894A5912591359145915591A6F369
S1131200EF010E94EE09FE019701A801DA9469F743
S1131210DF90EF90FF900F911F91CF91DF91089590
S11312209B01AC0160E070E080E89FE30C94C3068E
S11312300C94A1070C94430A0E94D107D8F3992374
S1131240C9F3940F511DA3F39150504094F059F0F9
S1131250882332F0660F771F881F91505040C1F7E2
S11312609E3F51052CF7880F911D9695879597F908
S113127008955F3FACF0983E9CF0BB278695779528
S11312806795B79508F4B1609395C1F7BB0F58F70C
S113129011F460FFE8CF6F5F7F4F8F4F9F4FE3CF15
S11312A00C94EC0716F00C94430A0C94A70768946A
S11312B00C94A1070E94D107A8F39923C1F3AEF3BC
S11312C0DF93CF931F930F93FF92C92FDD278823BA
S11312D02AF02197660F771F881FDAF720E030E0A5
S11312E040E85FEB9FE3883920F0803E38F0219698
S11312F08F770E94D709ECE7F0E004C00E94D70979
S1131300E9EAF0E00E94E9088B01BE01EC01FB2E42
S11313106F5771097595771F880B990B0E946607A3
S113132028E132E741E35FE30E940508AF2D98010D
S1131330AE01FF900F911F91CF91DF910E94EE09B2
S11313400C94B807FA01DC01AA0FBB1F9B01AC0186
S1131350BF5728F4222733274427507820C0B75199
S113136090F4AB2F0024469537952795011CA3953F
S1131370D2F3002071F0220F331F441FB395DAF328
S11313800ED00C94D60961307105A0E88A07B946DD
S113139030F49B01AC016627772788279078309634
S11313A021F0208331834283538308955058BB270F
S11313B0AA270E94EE090C94B8070E94AA0738F0E5
S11313C00E94B10720F039F49F3F19F426F40C94DD
S11313D0A7070EF4E095E7FB0C94A107E92F0E9400
S11313E0C90758F3BA17620773078407950720F0F3
S11313F079F4A6F50C94EB070EF4E0950B2EBA2FB6
S1131400A02D0B01B90190010C01CA01A001112406
S1131410FF27591B99F0593F50F4503E68F11A16B2
S1131420F040A22F232F342F4427585FF3CF469543
S113143037952795A795F0405395C9F77EF41F1665
S1131440BA0B620B730B840BBAF09150A1F0FF0F2F
S1131450BB1F661F771F881FC2F70EC0BA0F621F1B
S1131460731F841F48F4879577956795B795F7950B
S11314709E3F08F0B0CF9395880F08F09927EE0FA0
S11314809795879508959F3F31F0915020F4879563
S113149077956795B795880F911D9695879597F9D8
S11314A00895A1E21A2EAA1BBB1BFD010DC0AA1FA1
S11314B0BB1FEE1FFF1FA217B307E407F50720F0B9
S11314C0A21BB30BE40BF50B661F771F881F991F34
S11314D01A9469F760957095809590959B01AC017D
S11314E0BD01CF010895A29FB001B39FC001A39F86
S11314F0700D811D1124911DB29F700D811D112449
S1131500911D08950024A7FD00942A0F301D401D4D
S1131510501D601D701D801D901D08952A153B05EA
S11315204C055D056E057F05800791070895BB276F
S11315304A3031F4992322F4BDE2909581959F4F6E
S11315400C94A30ABB27FB015527AA27880F991FD0
S1131550AA1FA41710F0A41B83955051B9F7A05DDE
S1131560AA3308F0A95DA193009779F7B111B1935B
S11315701192CB010C94BC0ADC01FC01672F719120
S11315807723E1F7329704C07C916D937083629165
S10F1590AE17BF07C8F30895F894FFCF0E
S113159C6563686F207465737400000000000000BC
S11315AC0000000000483004010000013200014832
S11315BC30030100400032000248300501000004F1
S11315CC5000413A00533A00443A000A00004001EA
S10B15DC0701002000040000D7
S9030000FC
