:100000000C946B000C94B7010C9488000C9488003D
:100010000C9488000C9488000C9488000C94880040
:100020000C9488000C9488000C9488000C94880030
:100030000C9488000C9439030C9488000C9488006C
:100040000C9488000C9488000C9488000C94880010
:100050000C94880007634236B79BD8A71A396856B4
:1000600018AEBAAB558C1D3CB7CC5763BD6DEDFDDA
:10007000753EF6177231BF000000803F0800000097
:10008000BE922449123EABAAAA2ABECDCCCC4C3E8D
:1000900000000080BEABAAAAAA3E00000000BF007C
:1000A0000000803F0000000000084178D3BB438778
:1000B000D1133D190E3CC3BD4282AD2B3E68EC828C
:1000C00076BED98FE1A93E4C80EFFFBE01C4FF7F11
:1000D0003F000000000011241FBECFE5D8E0DEBFC6
:1000E000CDBF10E0A0E6B0E0ECEFF5E102C0059076
:1000F0000D92A83AB107D9F720E0A8EAB0E001C014
:100100001D92AD3BB207E1F70E9462020C94FC0A1B
:100110000C9400008DE990E00E9489030895CF922D
:10012000DF92EF92FF920F931F93CF93DF9300D054
:10013000CDB7DEB71A82198280E00E94C103109108
:10014000A100AE014F5F5F4F612F80E00E94C703A7
:10015000112329F0113031F000E010E005C000E07B
:1001600011E002C000E014E069817A8180E090E053
:100170000E94940720E030E040EA50E40E94220808
:100180006B017C01B80180E090E00E9494079B0124
:10019000AC01C701B6010E94F3062DED34E246E939
:1001A0005FEB0E948F0828E431EE40E652E40E94A3
:1001B00022080E946507862F0F900F90DF91CF9144
:1001C0001F910F91FF90EF90DF90CF9008958DE9F0
:1001D00090E00E9489030895CF93DF9300D0CDB7BC
:1001E000DEB71A82198280E00E94C103AE014F5F20
:1001F0005F4F6091A10081E00E94C70389819A81CD
:100200000F900F90DF91CF91089541E060E084E37B
:1002100090E00E94030441E061E084E390E00E94EA
:10022000030441E062E084E390E00E94030440E0C4
:1002300062E085E390E00E94360408951F93CF9317
:10024000DF93182FC0E0D0E019C041E060E085E303
:1002500090E00E9436048FEC97E00197F1F700C020
:10026000000040E060E085E390E00E9436048FECFF
:1002700097E00197F1F700C0000021962DE2129F50
:10028000C00111248C179D070CF1C93283E2D807F5
:10029000E4F2C0E0D0E01CC041E060E085E390E023
:1002A0000E9436048FEC97E00197F1F700C0000040
:1002B00040E060E085E390E00E9436048FEC97E038
:1002C0000197F1F700C00000219602C0C0E0D0E025
:1002D0001C161D060CF7DF91CF911F9108952AB1CE
:1002E00028612AB92AB120682AB920B5266820BD1C
:1002F000DC01CB01880F991FAA1FBB1F880F991F14
:10030000AA1FBB1F9C01AD01220F331F441F551FA5
:10031000220F331F441F551F60E074E284EF90E00A
:100320000E94810A8FEF820F89B9DA01C901019712
:10033000A109B109892F9A2FAB2FBB2780BD089542
:100340005D9BFECF8CB908950F931F93CF938C01C3
:10035000C0E003C00E94A001CF5FF801EC0FF11DC7
:1003600080818111F7CFCF911F910F9108951F9236
:100370000F920FB60F9211248F939F9387E893E10A
:100380000197F1F700C000008091B2008F5F809369
:10039000B20087E893E10197F1F700C000009F9158
:1003A0008F910F900FBE0F901F90189581E00E94C3
:1003B000DC0462E080E00E94B30440E062E081E39C
:1003C00090E00E94030485EA90E00E9454060E9497
:1003D000BA062093AA003093AB004093AC00509330
:1003E000AD006093AE007093AF008093B000909327
:1003F000B10008957F928F929F92AF92BF92CF9259
:10040000DF92EF92FF920F931F93CF93DF930E949F
:10041000BA06722E832E942ED52FC62FB72FF82F03
:10042000E92F2091AA003091AB004091AC0050918F
:10043000AD006091AE007091AF008091B0009091DE
:10044000B100ABE40E94B20AA22EB32EC42ED52E68
:10045000E62EF72E082F192F272D382D492D5D2F29
:100460006C2F7B2F8F2F9E2F0E94BE0AD0F00E94F0
:10047000BA062093AA003093AB004093AC0050938F
:10048000AD006093AE007093AF008093B000909386
:10049000B1008091B2008093A9001092B2008695BD
:1004A00003C08091A9008695DF91CF911F910F9194
:1004B000FF90EF90DF90CF90BF90AF909F908F9084
:1004C0007F900895CF93DF93CDB7DEB7A3970FB694
:1004D000F894DEBF0FBECDBF60E875E280E090E02B
:1004E0000E946F010E94BA06622E732E842E5F8FC7
:1004F00068A379A38AA39BA341E067E084E390E02B
:100500000E94030440E060E087E390E00E9403045F
:1005100040E060E08AE390E00E94030441E065E08F
:1005200081E390E00E94030441E066E081E390E013
:100530000E9403040E9405010E94E7000E948A00B5
:100540000E94D6018EE790E00E94E90460E070E02E
:1005500081E00E94DA0589E10E941E010E94FA01F1
:100560000E948F008E31B0F40E948F008E3160F4B3
:1005700041E067E085E390E00E94360464E670E0C5
:1005800081E00E94DA0506C040E067E085E390E084
:100590000E9436040E94BA06922E232E342E452E37
:1005A000562EB72FF82FE92F262D372D482D5F8D8A
:1005B00068A179A18AA19BA1ACE00E94B20AA22EF7
:1005C000B32EC42ED52EE62EF72E082F192F292D47
:1005D000322D432D542D652D7B2F8F2F9E2F0E9462
:1005E000BE0A08F440C00E94EC004AE0BE016F5F02
:1005F0007F4F0E94C70A82E990E00E94A401CE01C9
:1006000001960E94A4010E94FA014AE0BE01655FC2
:100610007F4F90E00E94C70A85E990E00E94A40104
:10062000CE010B960E94A4010E948F004AE0BE01F9
:100630006B5E7F4F90E00E94C70A88E990E00E94BD
:10064000A401CE0145960E94A4018BE990E00E948E
:10065000A4010E94BA06622E732E842E5F8F68A3B7
:1006600079A38AA39BA360E086E390E00E94210423
:1006700075CF1F920F920FB60F9211242F933F93B5
:100680004F935F936F937F938F939F93AF93BF939A
:10069000EF93FF93E091A800F0E08CB1E05AFF4F98
:1006A00080838091A8008F5F8093A8008091A8002C
:1006B0008230C0F01092A80080916000813429F44B
:1006C000809161000E941E010DC0809160008D34F8
:1006D00049F48091610064E670E0681B710981E073
:1006E0000E94DA05FF91EF91BF91AF919F918F9199
:1006F0007F916F915F914F913F912F910F900FBE1E
:100700000F901F901895349902C081E0089582E0FF
:100710000895FC0117B816B880B78F7180BF80812B
:1007200081112EC08281882319F0823039F00DC0EA
:1007300086B1806286B980B780BF07C086B180620B
:1007400086B990B78581892B80BF97B18181892B2C
:1007500087B98481882319F0813029F008C087B1D6
:10076000806287B904C097B18681892B87B996B119
:1007700023818781822B892B86B986B1806886B9CF
:100780000895811103C086B1806486B908950F93DE
:100790001F93CF93C62F8A0197B1907E97B997B1D7
:1007A000892B87B90E9483038130E1F3CC2319F0B0
:1007B000C13039F021C085B190E0F8019183808388
:1007C0001BC08091A300882319F0803239F014C037
:1007D00084B195B1F801918380830EC084B195B145
:1007E0000024880F991F001C880F991F001C892F57
:1007F000902DF8019183808386B1806186B9CF9175
:100800001F910F910895442319F0413071F008951C
:10081000FC01408121E030E002C0220F331F6A95C5
:10082000E2F72095242320830895FC01408121E0F4
:1008300030E002C0220F331F6A95E2F7242B208399
:100840000895FC01408181E090E09C01062E02C0E9
:10085000220F331F0A94E2F7842F90E08223932320
:1008600002C0969587956A95E2F70895442319F09A
:10087000413071F00895FC01408121E030E002C078
:10088000220F331F6A95E2F72095242320830895D1
:10089000FC01408121E030E002C0220F331F6A9545
:1008A000E2F7242B208308958130F1F030F082307C
:1008B00089F1833009F442C0089535B781E090E0B2
:1008C000FC0102C0EE0FFF1F6A95E2F72E2F209564
:1008D000232325BF25B702C0880F991F4A95E2F749
:1008E0008095822385BF089535B781E090E0FC01B3
:1008F00002C0EE0FFF1F6A95E2F72E2F20952323EB
:1009000025BF25B702C0880F991F4A95E2F7822BB1
:1009100085BF089555B781E090E09C0102C0220F89
:10092000331F6A95E2F7252B25BF25B702C0880F34
:10093000991F4A95E2F7822B85BF089555B781E04C
:1009400090E09C0102C0220F331F6A95E2F7252B2D
:1009500025BF25B702C0880F991F4A95E2F78095F9
:10096000822385BF0895962F813069F018F0823078
:1009700099F0089541E060E0892F0E9454048BB7FC
:1009800080648BBF089543E062E0892F0E94540485
:100990008BB780688BBF0895613019F0623029F001
:1009A00007C084B78F7B84BF03C084B7806484BFD3
:1009B0008BB780628BBF0895882319F0813029F0AE
:1009C00008958FB78F778FBF08958FB780688FBFD7
:1009D0000895CF92DF92EF92FF920F931F93CF93E0
:1009E000DF93FC018081882319F0813099F1D9C00F
:1009F00013BE12BE93B7338181812281832B822B58
:100A0000892B83BF82818032B1F0803309F0C9C065
:100A10008085918524E630E0281B390B3695279593
:100A200036952795ABE7B4E10E94A30A9695879582
:100A300081958CBFB6C02085318536952795369532
:100A40002795ABE7B4E10E94A30A96958795819517
:100A50008CBFA7C01FBC1EBC1DBC1CBC81818034C8
:100A600079F08834C9F48FB58E7F8FBD8FB58260E1
:100A70008FBD8EB588608EBD8EB580618EBD0CC079
:100A80008FB581608FBD8FB582608FBD8EB5877F3A
:100A90008EBD8EB580618EBDEF01068117816481A8
:100AA000758180E090E00E9494079B01AC0160E0BA
:100AB00070E08AE794E40E94F3066B017C01B801C0
:100AC00080E090E00E949407A70196010E9422080E
:100AD0009B01AC0160E074E284E79BE40E94F306B2
:100AE0000E946507615071097093B4006093B30070
:100AF00077BD66BD8A81803261F1803309F04DC0D7
:100B00008FB580648FBD8FB580688FBD88859985CE
:100B100064E670E0681B790B80E090E00E94940727
:100B200020E030E048EC52E40E94F3066B017C01C7
:100B30006091B3007091B40080E090E00E9494074F
:100B4000A70196010E9422080E9465077BBD6ABD2D
:100B500024C08FB58F7B8FBD8FB580688FBD6885B2
:100B6000798580E090E00E94940720E030E048EC36
:100B700052E40E94F3066B017C016091B300709116
:100B8000B40080E090E00E949407A70196010E94C3
:100B900022080E9465077BBD6ABD9EB58B81892BAB
:100BA0008EBDDF91CF911F910F91FF90EF90DF905D
:100BB000CF900895CF92DF92EF92FF92882319F0A1
:100BC000813039F16CC0809176008032A1F08033A1
:100BD00009F065C024E630E0261B370B36952795D3
:100BE00036952795ABE7B4E10E94A30A96958795C1
:100BF00081958CBF54C09B013695279536952795D6
:100C0000ABE7B4E10E94A30A9695879581958CBFC6
:100C100046C080917600803231F1803309F03FC0C8
:100C200084E690E09C01261B370BB90180E090E040
:100C30000E94940720E030E048EC52E40E94F30662
:100C40006B017C016091B3007091B40080E090E092
:100C50000E949407A70196010E9422080E9465073E
:100C60007BBD6ABD1CC080E090E00E94940720E03C
:100C700030E048EC52E40E94F3066B017C01609185
:100C8000B3007091B40080E090E00E949407A70147
:100C900096010E9422080E9465077BBD6ABDFF90F5
:100CA000EF90DF90CF900895FC0112BE91819130BA
:100CB000A1F028F09230C1F0933041F01BC083B70F
:100CC0008F7B83BF83B7877F83BF14C083B7806464
:100CD00083BF83B7877F83BF0DC083B7886083BF1F
:100CE00083B78F7B83BF06C083B7806483BF83B71E
:100CF000886083BF80818330F9F028F4813041F02F
:100D0000823081F00895843009F1853049F10895E9
:100D100083B7816083BF83B78D7F83BF83B78B7FAA
:100D200083BF089583B78B7F83BF83B7826083BF00
:100D300083B78E7F83BF089583B78B7F83BF83B7CD
:100D4000826083BF83B7816083BF089583B7846067
:100D500083BF83B78D7F83BF83B78E7F83BF0895A3
:100D600083B7846083BF83B78D7F83BF83B7816080
:100D700083BF089582B78F3F29F581EC82BF209110
:100D8000B5003091B6004091B7005091B800609125
:100D9000B9007091BA008091BB009091BC00A1E0B5
:100DA0000E94B20A2093B5003093B6004093B7007A
:100DB0005093B8006093B9007093BA008093BB0061
:100DC0009093BC002091B5003091B6004091B700DF
:100DD0005091B8006091B9007091BA008091BB0049
:100DE0009091BC0008950E9407070C94E8070E94A8
:100DF000E10758F00E94DA0740F029F45F3F29F03C
:100E00000C94D10751110C941C080C94D7070E9424
:100E1000F90768F39923B1F3552391F3951B550B0B
:100E2000BB27AA2762177307840738F09F5F5F4FBD
:100E3000220F331F441FAA1FA9F335D00E2E3AF0FC
:100E4000E0E832D091505040E695001CCAF72BD014
:100E5000FE2F29D0660F771F881FBB1F2617370765
:100E60004807AB07B0E809F0BB0B802DBF01FF2797
:100E700093585F4F3AF09E3F510578F00C94D1079C
:100E80000C941C085F3FE4F3983ED4F38695779565
:100E90006795B795F7959F5FC9F7880F911D969550
:100EA000879597F90895E1E0660F771F881FBB1FAC
:100EB000621773078407BA0720F0621B730B840B59
:100EC000BA0BEE1F88F7E09508950E94010888F09C
:100ED0009F5798F0B92F9927B751B0F0E1F0660FFE
:100EE000771F881F991F1AF0BA95C9F714C0B1303F
:100EF00091F00E941B08B1E008950C941B08672F25
:100F0000782F8827B85F39F0B93FCCF3869577956D
:100F10006795B395D9F73EF4909580957095619556
:100F20007F4F8F4F9F4F0895E89409C097FB3EF481
:100F300090958095709561957F4F8F4F9F4F992326
:100F4000A9F0F92F96E9BB279395F69587957795A4
:100F50006795B795F111F8CFFAF4BB0F11F460FF64
:100F60001BC06F5F7F4F8F4F9F4F16C0882311F0BC
:100F700096E911C0772321F09EE8872F762F05C0D0
:100F8000662371F096E8862F70E060E02AF09A956B
:100F9000660F771F881FDAF7880F9695879597F960
:100FA000089597F99F6780E870E060E008959FEFEB
:100FB00080EC089500240A941616170618060906F0
:100FC000089500240A9412161306140605060895BF
:100FD000092E0394000C11F4882352F0BB0F40F447
:100FE000BF2B11F460FF04C06F5F7F4F8F4F9F4F87
:100FF000089557FD9058440F551F59F05F3F71F009
:101000004795880F97FB991F61F09F3F79F087956F
:101010000895121613061406551FF2CF4695F1DFF8
:1010200008C0161617061806991FF1CF8695710588
:10103000610508940895E894BB2766277727CB01BC
:1010400097F908950E9435080C94E8070E94DA0782
:1010500038F00E94E10720F0952311F00C94D1079D
:101060000C94D70711240C941C080E94F90770F304
:10107000959FC1F3950F50E0551F629FF001729F3D
:10108000BB27F00DB11D639FAA27F00DB11DAA1F4C
:10109000649F6627B00DA11D661F829F2227B00D99
:1010A000A11D621F739FB00DA11D621F839FA00D24
:1010B000611D221F749F3327A00D611D231F849F74
:1010C000600D211D822F762F6A2F11249F575040CB
:1010D0009AF0F1F088234AF0EE0FFF1FBB1F661F46
:1010E000771F881F91505040A9F79E3F510580F00F
:1010F0000C94D1070C941C085F3FE4F3983ED4F3A2
:10110000869577956795B795F795E7959F5FC1F7B2
:10111000FE2B880F911D9695879597F90895FA01F2
:10112000EE0FFF1F309621053105A1F16115710504
:1011300061F48038BFE39B0749F1689490388105DA
:1011400061F08038BFEF9B0741F099234AF5FF3FDC
:10115000E1053105210519F1E8940894E795D901D5
:10116000AA2329F4AB2FBE2FF85FD0F310C0FF5F86
:1011700070F4A695E0F7F73950F019F0FF3A38F41B
:101180009F779F930DD00F9007FC9058089546F0DD
:101190000C94D70760E070E080E89FE308954FE784
:1011A0009F775F934F933F932F930E948A092F91CC
:1011B0003F914F915F910E9422080C94E70829F417
:1011C00016F00C94D1070C941B080C94D7070E94BE
:1011D0000108A8F39638A0F707F80F92E8942BE3DC
:1011E0003AEA48EB5FE70E9438080F920F920F929D
:1011F0004DB75EB70F920E94D209E4E5F0E00E947D
:1012000019094F915F91EF91FF91E595EE1FFF1F37
:1012100049F0FE57E0684427EE0F441FFA95E1F7C6
:101220004195550B0E944C090F9007FE0C94400904
:101230000895DF93CF931F930F93FF92EF92DF9266
:101240007B018C01689406C0DA2EEF010E943508FC
:10125000FE01E894A5912591359145915591A6F30C
:10126000EF010E941E0AFE019701A801DA9469F7B6
:10127000DF90EF90FF900F911F91CF91DF91089534
:101280009B01AC0160E070E080E89FE30C94F30602
:101290000C94D1070C94730A0E940108D8F3992387
:1012A000C9F3940F511DA3F39150504094F059F09D
:1012B000882332F0660F771F881F91505040C1F786
:1012C0009E3F51052CF7880F911D9695879597F9AC
:1012D00008955F3FACF0983E9CF0BB2786957795CC
:1012E0006795B79508F4B1609395C1F7BB0F58F7B0
:1012F00011F460FFE8CF6F5F7F4F8F4F9F4FE3CFB9
:101300000C941C0816F00C94730A0C94D70768947C
:101310000C94D1070E940108A8F39923C1F3AEF3FE
:10132000DF93CF931F930F93FF92C92FDD2788235D
:101330002AF02197660F771F881FDAF720E030E048
:1013400040E85FEB9FE3883920F0803E38F021963B
:101350008F770E94070AECE7F0E004C00E94070ABA
:10136000E9EAF0E00E9419098B01BE01EC01FB2EB5
:101370006F5771097595771F880B990B0E94960717
:1013800028E132E741E35FE30E943508AF2D980181
:10139000AE01FF900F911F91CF91DF910E941E0A25
:1013A0000C94E807FA01DC01AA0FBB1F9B01AC01FA
:1013B000BF5728F4222733274427507820C0B7513D
:1013C00090F4AB2F0024469537952795011CA395E3
:1013D000D2F3002071F0220F331F441FB395DAF3CC
:1013E0000ED00C94060A61307105A0E88A07B94650
:1013F00030F49B01AC0166277727882790783096D8
:1014000021F0208331834283538308955058BB27B2
:10141000AA270E941E0A0C94E8070E94DA0738F0F7
:101420000E94E10720F039F49F3F19F426F40C9450
:10143000D7070EF4E095E7FB0C94D107E92F0E9443
:10144000F90758F3BA17620773078407950720F066
:1014500079F4A6F50C941B080EF4E0950B2EBA2F28
:10146000A02D0B01B90190010C01CA01A0011124AA
:10147000FF27591B99F0593F50F4503E68F11A1656
:10148000F040A22F232F342F4427585FF3CF4695E7
:1014900037952795A795F0405395C9F77EF41F1609
:1014A000BA0B620B730B840BBAF09150A1F0FF0FD3
:1014B000BB1F661F771F881FC2F70EC0BA0F621FBF
:1014C000731F841F48F4879577956795B795F795AF
:1014D0009E3F08F0B0CF9395880F08F09927EE0F44
:1014E0009795879508959F3F31F0915020F4879507
:1014F00077956795B795880F911D9695879597F97C
:101500000895A1E21A2EAA1BBB1BFD010DC0AA1F44
:10151000BB1FEE1FFF1FA217B307E407F50720F05C
:10152000A21BB30BE40BF50B661F771F881F991FD7
:101530001A9469F760957095809590959B01AC0120
:10154000BD01CF010895A29FB001B39FC001A39F29
:10155000700D811D1124911DB29F700D811D1124EC
:10156000911D08950024A7FD00942A0F301D401DF1
:10157000501D601D701D801D901D08952A153B058E
:101580004C055D056E057F05800791070895BB2713
:101590004A3031F4992322F4BDE2909581959F4F12
:1015A0000C94D30ABB27FB015527AA27880F991F44
:1015B000AA1FA41710F0A41B83955051B9F7A05D82
:1015C000AA3308F0A95DA193009779F7B111B193FF
:1015D0001192CB010C94EC0ADC01FC01672F719194
:1015E0007723E1F7329704C07C916D937083629109
:0C15F000AE17BF07C8F30895F894FFCFB2
:1015FC006563686F20746573740000000000000060
:10160C0000000000004830040100000132000148D5
:10161C003003010040003200024830050100000494
:10162C005000413A00533A00443A000A000040018D
:08163C0007010020000400007A
:00000001FF
